:020000040800F2
:10000000900A002031020008390200083B02000873
:100010003D0200083F020008410200080000000005
:100020000000000000000000000000004302000883
:1000300045020008000000004702000849020008CD
:100040004B0200084B0200084B0200084B0200085C
:100050004B0200084B0200084B0200084B0200084C
:100060004B02000899050008010600084B02000831
:100070004B0200084B0200084B0200084B0200082C
:100080004B0200084B0200084B0200084B0200081C
:100090004B0200084B0200084B0200084B0200080C
:1000A0004B0200084B0200084B0200084B020008FC
:1000B0008D0E00084B0200084B0200084B0200089E
:1000C0004B0200084B0200084B0200084B020008DC
:1000D0004B0200084B020008211100084B020008E7
:1000E0004B0200084B0200084B0200084B020008BC
:1000F0004B0200084B0200084B0200084B020008AC
:100100004B0200084B0200084B0200084B0200089B
:100110004B0200084B0200084B0200084B0200088B
:100120004B0200084B0200084B0200084B0200087B
:100130004B0200084B0200084B0200084B0200086B
:100140004B0200084B0200084B0200084B0200085B
:100150004B0200084B0200084B0200084B0200084B
:100160004B0200084B0200084B0200084B0200083B
:100170004B0200084B0200084B0200084B0200082B
:100180004B0200084B02000800F002F800F041F8B2
:100190000AA090E8000C82448344AAF10107DA45E2
:1001A00001D100F036F8AFF2090EBAE80F0013F0F3
:1001B000010F18BFFB1A43F001031847C0170000D6
:1001C000E0170000103A24BF78C878C1FAD8520767
:1001D00024BF30C830C144BF04680C6070470000C1
:1001E0000023002400250026103A28BF78C1FBD840
:1001F000520728BF30C148BF0B607047642900F028
:100200007980002070471FB501F0B2FB1FBD10B50B
:1002100010BD00F037F91146FFF7F5FF01F0FCF8CB
:1002200000F055F903B4FFF7F2FF03BC01F093F8B7
:100230000948804709480047FEE7FEE7FEE7FEE77A
:10024000FEE7FEE7FEE7FEE7FEE7FEE704480549B6
:10025000054A064B70470000250E0008890100087A
:1002600090000020900A00209002002090020020C0
:10027000704700000FB4044910B503AA029800F0BB
:10028000D3F810BC5DF814FB140000202DE9F041F8
:100290000E460446002020622046E168884730B3BD
:1002A000252805D0D4E901219047206A401CF2E7B7
:1002B000E168204600278847050018D0A5F14100D5
:1002C000192802D820354FF40067324629462046C7
:1002D0002760FFF793FF40B1012804D0F61D26F0F8
:1002E00007060836D8E7361DD6E72846DAE7206A3B
:1002F000BDE8F0812DE9F04106460024106875291B
:10030000314616A510D0AFF30080002802DA404233
:1003100013A507E031688A0701D512A502E0490755
:1003200004D511A5012401E0AFF3008000210A22C9
:1003300006F1240709E0B0FBF2FCB0FBF2F302FB8C
:100340001C00303078541846491C0028F3D123464D
:100350002A463046BDE8F04100F00CB8000000002D
:100360002D0000002B0000002000000070477047A7
:10037000704770472DE9F0470D469946924604466E
:1003800000F124080168880604D5E06921F0100115
:10039000216000E00120A84201DD471B00E00027AA
:1003A000A1697A1902EB0900081AA0612078C00639
:1003B00002D42046AFF30080002608E0D4E90121F2
:1003C0001AF806009047206A401C761C20624E45B1
:1003D000F4DB2078C0060AD52046AFF3008006E0A3
:1003E000D4E9012130209047206A401C2062381E49
:1003F000A7F10107F4DC07E0D4E9012118F80500B2
:100400009047206A401C2062281EA5F10105F3DCFC
:100410002046AFF300802078000602D50220BDE818
:10042000F0870120FBE70000074B70B50D467B44C9
:1004300000F011F80446284600F020F810B14FF003
:10044000FF3070BD204670BDC30F000001694A1C1B
:1004500002610878704700B58FB0CDE90131002105
:10046000059105497944CDE9031011466846FFF727
:100470000DFF0FB000BD0000E5FFFFFF007B00F0A7
:1004800080007047754600F02BF8AE4605006946BF
:10049000534620F00700854618B020B5FFF7D6FE7A
:1004A000BDE820404FF000064FF000074FF0000875
:1004B0004FF0000B21F00701AC46ACE8C009ACE8F6
:1004C000C009ACE8C009ACE8C0098D46704710B55A
:1004D0000446AFF300802046BDE81040FFF7A2BEFF
:1004E000004870472C00002010B588B00446012158
:1004F000084600F007FB0121480400F013FB0C2024
:10050000069002208DF81C0003208DF81D000020AD
:100510008DF81E008DF81F0006A91A4800F064F936
:1005200007220221174800F0A7F9072203211548E6
:1005300000F0A2F902A800F002FFB4F5165F00D0A7
:10054000029402A9104800F087FE40210E4800F0F6
:1005500003FE012240F225510B4800F058FE2620F0
:100560008DF8040001208DF805008DF806008DF847
:10057000070001A800F02AFA0121034800F004FE58
:1005800008B010BD000002400044004010B56FF0FC
:10059000040000F033FC10BD10B5082000F06AF82C
:1005A000012818D10F2000F0D9FE08210C4800F0D6
:1005B00086F920B90B4800880A300A4908800948A2
:1005C0000088C82802DBC820064908800548018841
:1005D00005A0FFF74FFE082000F046F810BD000010
:1005E0000010024004000020C9E8D6C3B5C4B0B270
:1005F000C8ABBEE0C0EBA3BA2564636D0D0A000072
:1006000010B5102000F036F8012818D10F2000F0A6
:10061000A5FE10210C4800F052F920B90B480088C3
:100620000A380A49088009480088142802DC142086
:10063000064908800548018805A0FFF71BFE102029
:1006400000F012F810BD000000100240040000206D
:10065000C9E8D6C3B5C4B0B2C8ABBEE0C0EBA3BA5C
:100660002564636D0D0A00000149086070470000B1
:10067000143C014001460020034A12680A400AB1B6
:10068000012000E000207047143C01400021234974
:100690008279002A3AD00A46126803689A430B46C8
:1006A0001A600A1D126803689A430B1D1A600279CA
:1006B00011440A6803681A430A60184A083212682B
:1006C00003689A43154B08331A601A1D12680368B1
:1006D0009A43124B0C331A604279102A0ED11A1F1A
:1006E000126803681A430D4B08331A601A1D12680A
:1006F00003681A43094B0C331A600DE0074942792D
:1007000011440A6803681A430A6005E0027911443B
:100710000A6803689A430A6070470000003C014081
:1007200000B585B00121102000F0ECF9012188030B
:1007300000F008FA00208DF8080001208DF80B0069
:100740000820019001A9274800F04EF80321042059
:1007500000F07CFA0820039000208DF810000C2097
:100760008DF8110001208DF8120003A8FFF78EFF0D
:1007700009208DF8000001208DF801008DF802009D
:100780008DF80300684600F021F900208DF808007C
:1007900001208DF80B001020019001A9114800F0F4
:1007A00023F80421084600F051FA1020039000209D
:1007B0008DF810000C208DF8110001208DF812002A
:1007C00003A8FFF763FF0A208DF8000001208DF8D1
:1007D00001008DF802008DF80300684600F0F6F87D
:1007E00005B000BD00100240F0B50A46002100230C
:1007F000002400BF3DE0012505FA01F3156805EA74
:1008000003049C4234D105684F000326BE40B54323
:10081000056015794E00B5400668354305601579C9
:10082000012D02D01579022D16D185684F000326BF
:10083000BE40B543856055794E00B5408668354366
:100840008560456801268E40B543456045689679C8
:100850008E40B6B235434560C5684F000326BE40A2
:10086000B543C560D5794E00B540C6683543C5600F
:10087000491C1029BFD3F0BDF0B5002300244D075B
:10088000ED0E02FA05F3CE1000F1200555F82650C2
:100890004E07F70E0F26BE40B543CF1000F12006DD
:1008A00046F82750CE1000F1200555F8265045EAAD
:1008B0000304CE1000F1200545F82640F0BD0246A5
:1008C000002013690B400BB1012000E000207047AD
:1008D000418370470183704770B56FF002060024B2
:1008E0004FF480712648FFF7F3FF322000F05CFDE3
:1008F0004FF480712248FFF7EDFF0A2000F054FD0D
:100900004FF480711E48FFF7E3FF00201D49086087
:1009100009E0641C0A2000F047FDB4F57A7F02DB91
:100920004FF0FF3070BD4FF400711548FFF7C7FF5F
:100930000028EED0002401211248243800F0F7FAF4
:100940000AE0641C0A2000F02FFD44F62060844277
:1009500002DB6FF00100E5E74FF400710848FFF794
:10096000AEFF0128EDD0074806680021054824386D
:1009700000F0DDFA3A2096FBF0F52846D2E70000B9
:1009800000080240240400401CB50121084600F084
:10099000B9F8C020009001208DF8040000208DF8E7
:1009A000060001208DF805008DF80700402106485B
:1009B000FFF790FF80210448FFF78CFF694602484B
:1009C000FFF712FF1CBD00000000024070B50021BF
:1009D00000230F22C4781CB3174C246804F4E0648D
:1009E000C4F5E064C4F30721C1F10404E3B20A4191
:1009F00044789C40E1B28478144021430C07210ED6
:100A00000E4C05786155047804F01F050124AC40B4
:100A100005786D11AD0005F1E025C5F8004109E04C
:100A2000047804F01F050124AC40054D06787611CA
:100A300045F8264070BD00000CED00E000E400E049
:100A400080E100E002490143024A11607047000062
:100A50000000FA050CED00E000B58BB0012108465E
:100A600000F070F80121084600F04CF84FF4807057
:100A7000099002208DF8280001208DF8290000201F
:100A80008DF82A0001208DF82B0009A91B48FFF7DB
:100A9000ABFE012208211948FFF7EEFE5320ADF806
:100AA000180040F2E73007900020ADF81A00ADF8CA
:100AB000200006A9124800F0B9FA6020ADF8040041
:100AC0000120ADF8060000200390ADF8100001A948
:100AD0000B4800F061FA0821094800F09BFA012157
:100AE000074800F015FA0121054800F02CFA012111
:100AF000034800F01CFA0BB000BD000000000240EB
:100B00000000014029B1064A12680243044B1A60F2
:100B100004E0034A12688243014B1A6070470000E8
:100B20003038024029B1064A12680243044B1A6069
:100B300004E0034A12688243014B1A6070470000C8
:100B40004038024029B1064A12680243044B1A6039
:100B500004E0034A12688243014B1A6070470000A8
:100B600044380240F0B5002100220024022500266E
:100B70000223324F3F6807F00C0121B1042905D050
:100B8000082937D105E02E4F076036E02D4F07606A
:100B900033E02A4F3F1F3F68C7F38056274F3F1F60
:100BA0003F6807F03F036EB1264FB7FBF3F7DFF85E
:100BB0008CC0ACF1040CDCF800C0CCF3881C07FB43
:100BC0000CF40CE01E4FB7FBF3F7DFF870C0ACF18C
:100BD000040CDCF800C0CCF3881C07FB0CF4174FA6
:100BE0003F1F3F68C7F301477F1C7D00B4FBF5F74B
:100BF000076002E0124F076000BF00BF0F4F3F6861
:100C000007F0F0010909104F7A5C0768D740476088
:100C10000A4F3F6807F4E051890A0B4F7A5C476836
:100C2000D7408760054F3F6807F46041490B064F86
:100C30007A5C4768D740C760F0BD000008380240C2
:100C40000024F40000127A001A00002030B50022BF
:100C50008B071C0F0F2303FA04F20B4B8C1053F875
:100C600024309343084C8D1044F8253023468C10D3
:100C700053F824308C07240F00FA04F42343024C69
:100C80008D1044F8253030BD083801400CB50020E7
:100C9000019000903448006840F480303249086088
:100CA00000BF3148006800F4003000900198401CFB
:100CB0000190009818B90198B0F5A04FF1D12A48D9
:100CC000006800F4003010B10120009001E0002025
:100CD00000900098012846D123484030006840F039
:100CE00080502149403108602048006840F440406D
:100CF0001E4908601C48083000681B49083108601C
:100D00000846006840F4004008600846006840F467
:100D1000A05008601648091F0860081F006840F0CE
:100D20008070091F086000BF0F48006800F0007065
:100D30000028F9D040F205700E4908600A480830D2
:100D4000006820F003000849083108600846006880
:100D500040F00200086000BF03480830006800F05F
:100D60000C000828F8D10CBD00380240007000408B
:100D700008544007003C024000B585B00121022024
:100D8000FFF7D0FE01210420FFF7BCFE4FF4807076
:100D9000039001208DF8100000208DF81200012032
:100DA0008DF813008DF8110003A91248FFF71CFD00
:100DB0004FF40070039000208DF8100001208DF892
:100DC000130003A90B48FFF70FFD5320ADF80000F7
:100DD0004CF24F3001900020ADF80200ADF8080051
:100DE0006946054800F022F90021034800F09FF809
:100DF00005B000BD0008024000040040042808D1EE
:100E00004FF0E021096941F004014FF0E022116147
:100E100007E04FF0E021096921F004014FF0E022E2
:100E20001161704710B51548006840F4700013490F
:100E300008601348006840F0010011490860002074
:100E40000F49083108600E4800680E4908400C49F7
:100E500008600D48091D0860081F006820F4802004
:100E6000091F0860002006490C310860FFF70EFFDB
:100E70004FF0006001498039086010BD88ED00E046
:100E800000380240FFFFF6FE1030002408B54FF096
:100E9000FF3000900121880700F064F801281FD17D
:100EA00010480068401C0F49086008460068B0F50B
:100EB0007A7F11D1FFF710FD00900098002804DD23
:100EC00009A00099FFF7D6F903E00CA00099FFF7FD
:100ED000D1F90020034908600121880700F024F8B7
:100EE00008BD000010000020D7D4B6AFB2E2C1BFE9
:100EF000BEE0C0EB3A2564636D0D0A00D7D4B6AFEF
:100F0000B2E2C1BFB4EDCEF33A25640D0A00000091
:100F100021B1028842F08002028004E002884FF68C
:100F20007F731A4002807047CA430282704721B122
:100F3000028842F00102028004E002884FF6FE734C
:100F40001A400280704731B1B0F8442042F40042A8
:100F5000A0F8442005E0B0F84420C2F30E02A0F847
:100F60004420704730B50246002000230024158A33
:100F700005EA0103958905EA010413B10CB10120CA
:100F800000E0002030BD1AB183890B43838102E069
:100F900083898B438381704770B50024002200232E
:100FA000058C4FF6FE7635400584028C8388048BD1
:100FB0004FF68F752C40B51E2C400D882C43751EA6
:100FC0002A408D892A434D882A43104DA84202D0D9
:100FD0000F4DA84213D14FF6F7752A40CD892A4309
:100FE0004FF6FB752A408D882A434FF6FF652B404C
:100FF0004FF6FF552B400D8A2B434D8A2B438380A0
:1010000004838D684563028470BD000000000140C8
:10101000000401400A460021018B4FF6F773194086
:10102000114301837047416370470000002202882A
:10103000184B98420ED0184B98420BD0B0F1804F0D
:1010400008D0164B984205D0154B984202D0154B4C
:10105000984204D14FF68F731A404B881A43124BB3
:10106000984207D0114B984204D04FF6FF431A40E4
:101070000B891A4302804B68C3620B880385054BBA
:10108000984202D0044B984201D18B7A0386012307
:1010900083827047000001400004014000040040CA
:1010A00000080040000C0040001000400014004008
:1010B0007FB504460D4601210846FFF733FD42F295
:1010C000CF00ADF8040004EB84000121C1EB400027
:1010D00002900020ADF80600ADF80C0001A94FF019
:1010E0008040FFF7A3FF01218807FFF71DFF0122C2
:1010F00011469007FFF747FF1C208DF800000120E4
:101100008DF801008DF802008DF803006846FFF7A6
:101110005DFC29464FF08040FFF709FF7FBD0000CE
:1011200010B540F22551094800F047F8012807D1D1
:10113000064800F0FBF806490870012005490870D0
:1011400040F22551014800F010F810BD0044004065
:10115000180000201900002001F40072B2F5007F91
:1011600000D100BFCA430280704710B5002200239F
:1011700040F66A14A14200D100BF0A120124944033
:10118000A3B2DC43048010BD21B1828942F4005235
:10119000828104E082894DF6FF731A408281704794
:1011A00002460020B1F5007F00D100BF13880B403C
:1011B0000BB1012000E00020704770B5024600240A
:1011C00000230025002040F66A16B14200D100BF7E
:1011D000C1F3421501F01F03012606FA03F3012DA6
:1011E00002D19689334006E0022D02D1168A33409F
:1011F00001E0968A33400C12012606FA04F41688A0
:10120000344013B10CB1012000E0002070BDF0B5F6
:101210000346002400260025002040F66A17B94244
:1012200000D100BF1846C1F3421401F01F06012788
:1012300007FA06F5012C01D10C3004E0022C01D193
:10124000103000E014301AB107682F43076002E045
:101250000768AF430760F0BD2DE9FF4705460E461E
:101260000024A14600BFA046B08900B100BF2C8A6F
:1012700024F44054F08804432C82AC8941F20C6081
:101280008443B08831890843718908430443AC81A1
:10129000AC8A24F44074B0890443AC826846FFF7FA
:1012A00061FC2048854202D01F48854202D1DDF80A
:1012B0000C9001E0DDF80890A88900F4004040B1EE
:1012C00009EBC90000EB091031684900B0FBF1F7E8
:1012D00007E009EBC90000EB091031688900B0FB99
:1012E000F1F76420B7FBF0F004012009642101FB51
:1012F0001078A88900F4004040B1322000EBC8000B
:10130000B0FBF1F000F00700044308E0322000EBEE
:1013100008106421B0FBF1F000F00F0004432C81B1
:10132000BDE8FF8700100140001401400146888895
:10133000C0F308007047C1F30802828070474FF481
:101340001651016000218180C18001810C21418101
:1013500000218181704700BFFEE700000021114A93
:1013600012684243521E4FF0E0235A6100229A61F4
:101370001A46126942F001021A6100BF4FF0E022E2
:10138000116901F001021AB101F48032002AF5D08E
:101390004FF0E022126922F001024FF0E0231A61BF
:1013A000704700000C0000200021114A12684243DF
:1013B000521E4FF0E0235A6100229A611A461269C8
:1013C00042F001021A6100BF4FF0E022116901F002
:1013D00001021AB101F48032002AF5D04FF0E02268
:1013E000126922F001024FF0E0231A6170470000F9
:1013F0000800002070B504460D46A1B20548FFF76D
:101400009AFF00BF80210348FFF7CAFE0028F9D0E9
:10141000204670BD004400402DED068B00260524BB
:101420002002FFF70FFBFFF7B1F8FFF7ADFAFFF768
:1014300013FBFFF7A1FCFFF773F94FF41650FFF70A
:1014400053F800210520FFF733FE59A0FEF712FFE5
:10145000ACE05A48007800284ED05948007832282D
:1014600019D004DC302838D0312840D104E041289C
:101470001BD053283BD124E0FFF72EFA0546002D60
:1014800004DA29464FA0FEF7F5FE8FE0294651A069
:10149000FEF7F0FE2CE001212046FFF709FE0126B1
:1014A000214650A0FEF7E6FE22E0012E08D1601C86
:1014B000C4B20A2C00DD0A2401212046FFF7F8FD02
:1014C00016E0012E08D1601EC4B2022C00DA0224FC
:1014D00001212046FFF7ECFD0AE048A0FEF7CAFE16
:1014E00000214FF08040FFF722FD002600E000BF02
:1014F00000BF0020314908704448008800F0B5F86A
:1015000041EC1A0B9FED420B53EC102B00F0FCF852
:1015100041EC180B284600F091F841EC190B53EC04
:10152000182B00F0B5F80BD800203B4908603B4968
:10153000C1F89C024FF4FA713948FFF774FD31E0AD
:101540003248008800F091F841EC1A0B9FED300B07
:1015500053EC102B00F0D8F841EC180B284600F0A3
:101560006DF841EC190B53EC182B00F0CBF90FD2AE
:101570002648008885420BDC0020274908600120AE
:101580002649C1F89C02FA212548FFF74CFD09E0E5
:101590000120214908602149C1F89C02002120480E
:1015A000FFF741FD6420FFF7D9FE00BF51E70000BF
:1015B00077656C636F6D6520210D0A0019000020AE
:1015C00018000020B2E2C1BFB4EDCEF33A25646347
:1015D0006D0D0A00B5B1C7B0BEE0C0EB3A2564633B
:1015E0006D0D0A00D7D4B6AFC4A3CABD696E67A19A
:1015F000AAA1AA7365633A25640D0A00CDCBB3F6A0
:10160000D7D4B6AFC4A3CABD0D0A000004000020A1
:10161000000000000000E03F98024042000040420D
:1016200000000140491058BFC1F140415B1058BF54
:10163000C3F140438B42EFF30080704710F000424B
:1016400048BF4042B0FA80F310FA03F10AD0C3F168
:101650001D0303F580634FEA415002EB035202EB96
:10166000D12170474FF000007047B0FA80F310FAB4
:1016700003F10AD0C3F11D0303F580634FEA415023
:101680004FEA035202EBD12170474FF00000704740
:1016900051EA030C17D41CF5801F58BFBCF5801FFE
:1016A00000F10680994218BF704708BF904270470A
:1016B00007D711F5801F58BF13F5801F19D4994221
:1016C0007047894270471CF5801F08D5BCF5801F04
:1016D000F7D58B4218BF704708BF824270474FF45E
:1016E000001C1CEB410F38BF1CEB430F01D28B4297
:1016F000704770B500F0B2F8922449004FF00051E5
:101700004FF08053FFF78EBFDFF848C170B51CEA79
:10171000111E1EBF1CEA13159EEA0C0F95EA0C0F52
:1017200000F06F8081EA030423EA4C134EEAD47E72
:1017300021EA4C1141F4801143F48013AE44A1FB23
:10174000024CA0FB0365AEF17F7E361955EB0C050C
:10175000A1FB034C4CF10003A0FB021C16EB0C0692
:10176000654153F10003094218BF46F0010613F426
:10177000007F0BD14FEA03314FEA0530340341EAD1
:10178000155140EA16506FF003020AE04FEAC321F8
:101790004FEAC520F40241EA555140EA56506FF035
:1017A000020202EB2E4201EB025585EACE710AD00D
:1017B0005FEA440C18BF24F0004450F1000041F1EE
:1017C000000120EAD47040F2FE7C624500D270BD78
:1017D000A84214BF4FF080444FF04044002E08BF91
:1017E0000024BEF1806FA8BFA1F1C041BDE87040E8
:1017F00080F282804FF0000001F1C04101F0004111
:1018000070479EEA0C0F0CEA131518BF95EA0C0FEF
:1018100006D04FF0000081EA030E0EF0004170BDCB
:1018200000F01CF88900013E00F007B800F009B88C
:101830004FEA430C5FEA5C5C08D081EA030100F0E8
:101840005BB84FEA410C5FEA5C5CF6D14FF00000F8
:10185000014970470000FF070000F87F0EF1020EFB
:101860002EF0030E5EF8046B364205D4012A43EBDA
:10187000030515F5001F12D8012841EB010C1CF5DA
:10188000001F0CD80ED14FEAD17C15F5001F0CEBD0
:101890004C0C0CF1020C08BF4CEBD37C04E04FF075
:1018A000080C01E04FEAD37C0CEB4C0526FA05F658
:1018B00006F00706B6F1040C06D20EEB860CBDE866
:1018C00070404CF0010C6047DFE80CF0090B02029D
:1018D0004FF000414FF00000A1F5002170BD194606
:1018E0001046012851EB010418BFD4F5001484BF41
:1018F000002001F0004170BD0808A0F500114FEA7A
:101900003101704753EA010C17D41CF5801F58BFF2
:10191000BCF5801F00F106808B4218BF704708BFDE
:101920008242704707D713F5801F58BF11F5801FFB
:1019300019D48B4270479B4270471CF5801F08D515
:10194000BCF5801FF7D5994218BF704708BF904279
:1019500070474FF4001C1CEB430F38BF1CEB410FCA
:1019600001D2994270470FB40CBC03BCFFF7C1BE53
:101970004FF04070E1EE100A704700009C1900081B
:10198000000000202C000000C4010008C819000855
:101990002C000020640A0000E001000800000000A4
:1019A0006400000015000000085200000000000064
:1019B000000000000000000000000102030401021A
:0819C0000304060708090000FA
:040000050800018965
:00000001FF
